{
  "contractName": "CreditChannels",
  "abi": [
    {
      "constant": false,
      "inputs": [
        {
          "name": "clientId",
          "type": "uint256"
        },
        {
          "name": "h",
          "type": "bytes32[3]"
        },
        {
          "name": "v",
          "type": "uint8"
        },
        {
          "name": "credits",
          "type": "uint256"
        }
      ],
      "name": "closeChannel",
      "outputs": [],
      "payable": false,
      "stateMutability": "nonpayable",
      "type": "function"
    },
    {
      "constant": true,
      "inputs": [],
      "name": "hasChannelOpen",
      "outputs": [
        {
          "name": "",
          "type": "bool"
        }
      ],
      "payable": false,
      "stateMutability": "view",
      "type": "function"
    },
    {
      "constant": true,
      "inputs": [],
      "name": "ping",
      "outputs": [
        {
          "name": "",
          "type": "uint256"
        }
      ],
      "payable": false,
      "stateMutability": "pure",
      "type": "function"
    },
    {
      "constant": true,
      "inputs": [],
      "name": "getCredits",
      "outputs": [
        {
          "name": "",
          "type": "uint256"
        }
      ],
      "payable": false,
      "stateMutability": "view",
      "type": "function"
    },
    {
      "constant": false,
      "inputs": [],
      "name": "openChannel",
      "outputs": [
        {
          "name": "",
          "type": "bytes32"
        }
      ],
      "payable": true,
      "stateMutability": "payable",
      "type": "function"
    },
    {
      "constant": true,
      "inputs": [
        {
          "name": "clientId",
          "type": "uint256"
        },
        {
          "name": "h",
          "type": "bytes32[3]"
        },
        {
          "name": "v",
          "type": "uint8"
        },
        {
          "name": "credits",
          "type": "uint256"
        }
      ],
      "name": "verifyPromise",
      "outputs": [
        {
          "name": "",
          "type": "bool"
        }
      ],
      "payable": false,
      "stateMutability": "view",
      "type": "function"
    },
    {
      "inputs": [
        {
          "name": "_provider",
          "type": "address"
        }
      ],
      "payable": false,
      "stateMutability": "nonpayable",
      "type": "constructor"
    }
  ],
  "bytecode": "0x6060604052341561000f57600080fd5b604051602080610bd883398101604052808051906020019091905050806000806101000a81548173ffffffffffffffffffffffffffffffffffffffff021916908373ffffffffffffffffffffffffffffffffffffffff16021790555050610b5d8061007b6000396000f300606060405260043610610078576000357c0100000000000000000000000000000000000000000000000000000000900463ffffffff1680630a3e93e41461007d5780631c998a69146100bc5780635c36b186146100e9578063823a71af1461011257806389be87a11461013b578063ae46efbc14610161575b600080fd5b341561008857600080fd5b6100ba60048080359060200190919080606001909190803560ff169060200190919080359060200190919050506101b8565b005b34156100c757600080fd5b6100cf610569565b604051808215151515815260200191505060405180910390f35b34156100f457600080fd5b6100fc610643565b6040518082815260200191505060405180910390f35b341561011d57600080fd5b61012561064c565b6040518082815260200191505060405180910390f35b61014361076a565b60405180826000191660001916815260200191505060405180910390f35b341561016c57600080fd5b61019e60048080359060200190919080606001909190803560ff16906020019091908035906020019091905050610881565b604051808215151515815260200191505060405180910390f35b60006101c2610af9565b60008060008860405180828152602001915050604051809103902094506000809054906101000a900473ffffffffffffffffffffffffffffffffffffffff1673ffffffffffffffffffffffffffffffffffffffff163373ffffffffffffffffffffffffffffffffffffffff1614151561023a57600080fd5b600160008660001916600019168152602001908152602001600020606060405190810160405290816000820160009054906101000a900473ffffffffffffffffffffffffffffffffffffffff1673ffffffffffffffffffffffffffffffffffffffff1673ffffffffffffffffffffffffffffffffffffffff1681526020016001820154815260200160028201548152505093506102df84602001518560400151610ad6565b86111515156102ed57600080fd5b60018860006003811015156102fe57fe5b602002013560001916888a600160038110151561031757fe5b6020020135600019168b600260038110151561032f57fe5b602002013560001916604051600081526020016040526000604051602001526040518085600019166000191681526020018460ff1660ff16815260200183600019166000191681526020018260001916600019168152602001945050505050602060405160208103908084039060008661646e5a03f115156103b057600080fd5b5050602060405103519250836000015173ffffffffffffffffffffffffffffffffffffffff168373ffffffffffffffffffffffffffffffffffffffff161415156103f957600080fd5b8486604051808360001916600019168152602001828152602001925050506040518091039020915087600060038110151561043057fe5b60200201356000191660001916826000191614151561044e57600080fd5b61045c868560400151610ae3565b90506000809054906101000a900473ffffffffffffffffffffffffffffffffffffffff1673ffffffffffffffffffffffffffffffffffffffff166108fc829081150290604051600060405180830381858888f1935050505015156104bf57600080fd5b836000015173ffffffffffffffffffffffffffffffffffffffff166108fc828660200151039081150290604051600060405180830381858888f19350505050151561050957600080fd5b600160008660001916600019168152602001908152602001600020600080820160006101000a81549073ffffffffffffffffffffffffffffffffffffffff0219169055600182016000905560028201600090555050505050505050505050565b60008033604051808273ffffffffffffffffffffffffffffffffffffffff1673ffffffffffffffffffffffffffffffffffffffff166c01000000000000000000000000028152601401915050604051809103902090503373ffffffffffffffffffffffffffffffffffffffff1660016000836000191660001916815260200190815260200160002060000160009054906101000a900473ffffffffffffffffffffffffffffffffffffffff1673ffffffffffffffffffffffffffffffffffffffff16141561063a576001915061063f565b600091505b5090565b600060c8905090565b60008033604051808273ffffffffffffffffffffffffffffffffffffffff1673ffffffffffffffffffffffffffffffffffffffff166c01000000000000000000000000028152601401915050604051809103902090503373ffffffffffffffffffffffffffffffffffffffff1660016000836000191660001916815260200190815260200160002060000160009054906101000a900473ffffffffffffffffffffffffffffffffffffffff1673ffffffffffffffffffffffffffffffffffffffff1614156107615761075a6001600083600019166000191681526020019081526020016000206001015460016000846000191660001916815260200190815260200160002060020154610ad6565b9150610766565b600091505b5090565b600080610775610af9565b33604051808273ffffffffffffffffffffffffffffffffffffffff1673ffffffffffffffffffffffffffffffffffffffff166c01000000000000000000000000028152601401915050604051809103902091506060604051908101604052803373ffffffffffffffffffffffffffffffffffffffff168152602001348152602001620f424081525090508060016000846000191660001916815260200190815260200160002060008201518160000160006101000a81548173ffffffffffffffffffffffffffffffffffffffff021916908373ffffffffffffffffffffffffffffffffffffffff1602179055506020820151816001015560408201518160020155905050819250505090565b60008061088c610af9565b600080886040518082815260200191505060405180910390209350600160008560001916600019168152602001908152602001600020606060405190810160405290816000820160009054906101000a900473ffffffffffffffffffffffffffffffffffffffff1673ffffffffffffffffffffffffffffffffffffffff1673ffffffffffffffffffffffffffffffffffffffff16815260200160018201548152602001600282015481525050925061094c83602001518460400151610ad6565b86111561095c5760009450610aca565b600188600060038110151561096d57fe5b602002013560001916888a600160038110151561098657fe5b6020020135600019168b600260038110151561099e57fe5b602002013560001916604051600081526020016040526000604051602001526040518085600019166000191681526020018460ff1660ff16815260200183600019166000191681526020018260001916600019168152602001945050505050602060405160208103908084039060008661646e5a03f11515610a1f57600080fd5b5050602060405103519150826000015173ffffffffffffffffffffffffffffffffffffffff168273ffffffffffffffffffffffffffffffffffffffff16141515610a6c5760009450610aca565b83866040518083600019166000191681526020018281526020019250505060405180910390209050876000600381101515610aa357fe5b602002013560001916600019168160001916141515610ac55760009450610aca565b600194505b50505050949350505050565b6000818302905092915050565b60008183811515610af057fe5b04905092915050565b606060405190810160405280600073ffffffffffffffffffffffffffffffffffffffff168152602001600081526020016000815250905600a165627a7a72305820ce11eebb48e3cbff4a04f4a9dcd5977f12cb1c773d6bc63ef3fe41ecf102e6a50029",
  "source": "pragma solidity ^0.4.18;\n\ncontract CreditChannels {\n\n  struct Channel {\n    address consumer;\n    uint deposit;\n    uint conversionRate;\n  }\n\n  address provider;\n  mapping (bytes32 => Channel) channels;\n\n  function CreditChannels(address _provider) public {\n    provider = _provider;\n  }\n\n  function openChannel() payable external returns (bytes32) {\n    bytes32 channelId = keccak256(msg.sender);\n    Channel memory channel = Channel(\n      msg.sender,\n      msg.value,\n      1000000\n    );\n\n    channels[channelId] = channel;\n\n    return channelId;\n  }\n\n  function hasChannelOpen() external view returns (bool) {\n    bytes32 channelId = keccak256(msg.sender);\n    if (channels[channelId].consumer == msg.sender) {\n      return true;\n    }\n    return false;\n  }\n\n  function getCredits() external view returns (uint) {\n    bytes32 channelId = keccak256(msg.sender);\n    if (channels[channelId].consumer == msg.sender) {\n      return ethToCredits(channels[channelId].deposit, channels[channelId].conversionRate);\n    }\n    return 0;\n  }\n\n  function verifyPromise(uint clientId, bytes32[3] h, uint8 v, uint credits) external view returns (bool) {\n    // h[0]    Hash of (id, credits)\n    // h[1]    r of signature\n    // h[2]    s of signature\n\n    bytes32 channelId = keccak256(clientId);\n\n    Channel memory channel;\n    channel = channels[channelId];\n\n    // verify the channel has enough credits\n    if (credits > ethToCredits(channel.deposit, channel.conversionRate)) {\n      return false;\n    }\n\n    // verift the consumer has signed the promise\n    address signer = ecrecover(h[0], v, h[1], h[2]);\n    if (signer != channel.consumer) {\n      return false;\n    }\n\n    // verify the hash provided is of the channel id and the amount sent\n    bytes32 proof = keccak256(channelId, credits);\n    if (proof != h[0]) {\n      return false;\n    }\n\n    return true;\n  }\n\n  function closeChannel(uint clientId, bytes32[3] h, uint8 v, uint credits) external {\n    // h[0]    Hash of (id, credits)\n    // h[1]    r of signature\n    // h[2]    s of signature\n\n    bytes32 channelId = keccak256(clientId);\n\n    // only the provider can close the channel\n    require(msg.sender == provider);\n\n    Channel memory channel;\n    channel = channels[channelId];\n\n    // verify the channel has enough credits\n    require(credits <= ethToCredits(channel.deposit, channel.conversionRate));\n\n    address signer = ecrecover(h[0], v, h[1], h[2]);\n    require(signer == channel.consumer);\n\n    // verify the hash provided is of the channel id and the amount sent\n    bytes32 proof = keccak256(channelId, credits);\n    require(proof == h[0]);\n\n    uint consumedEth = creditsToEth(credits, channel.conversionRate);\n    provider.transfer(consumedEth);\n    channel.consumer.transfer(channel.deposit - consumedEth);\n\n    delete channels[channelId];\n  }\n\n  function ethToCredits(uint ethAmount, uint conversionRate) internal pure returns (uint) {\n    return ethAmount * conversionRate;\n  }\n\n  function creditsToEth(uint credits, uint conversionRate) internal pure returns (uint) {\n    return credits / conversionRate;\n  }\n\n  function ping() external pure returns (uint) {\n    return 200;\n  }\n\n}\n",
  "sourcePath": "/home/mcampo/development/projects/ethereum-credit-channels/src/truffle/contracts/CreditChannels.sol",
  "compiler": {
    "name": "solc",
    "version": "0.4.18+commit.9cf6e910.Emscripten.clang"
  },
  "schemaVersion": "1.0.1",
  "updatedAt": "2018-02-08T13:14:23.767Z"
}