{
  "contractName": "CreditChannels",
  "abi": [
    {
      "constant": true,
      "inputs": [
        {
          "name": "channelId",
          "type": "bytes32"
        },
        {
          "name": "credits",
          "type": "uint256"
        },
        {
          "name": "v",
          "type": "uint8"
        },
        {
          "name": "r",
          "type": "bytes32"
        },
        {
          "name": "s",
          "type": "bytes32"
        }
      ],
      "name": "verifyMessage",
      "outputs": [
        {
          "name": "",
          "type": "bool"
        }
      ],
      "payable": false,
      "stateMutability": "view",
      "type": "function"
    },
    {
      "constant": false,
      "inputs": [
        {
          "name": "clientId",
          "type": "uint256"
        },
        {
          "name": "h",
          "type": "bytes32[3]"
        },
        {
          "name": "v",
          "type": "uint8"
        },
        {
          "name": "credits",
          "type": "uint256"
        }
      ],
      "name": "closeChannel",
      "outputs": [],
      "payable": false,
      "stateMutability": "nonpayable",
      "type": "function"
    },
    {
      "constant": true,
      "inputs": [],
      "name": "hasChannelOpen",
      "outputs": [
        {
          "name": "",
          "type": "bool"
        }
      ],
      "payable": false,
      "stateMutability": "view",
      "type": "function"
    },
    {
      "constant": true,
      "inputs": [],
      "name": "ping",
      "outputs": [
        {
          "name": "",
          "type": "uint256"
        }
      ],
      "payable": false,
      "stateMutability": "pure",
      "type": "function"
    },
    {
      "constant": true,
      "inputs": [],
      "name": "getCredits",
      "outputs": [
        {
          "name": "",
          "type": "uint256"
        }
      ],
      "payable": false,
      "stateMutability": "view",
      "type": "function"
    },
    {
      "constant": false,
      "inputs": [],
      "name": "openChannel",
      "outputs": [
        {
          "name": "",
          "type": "bytes32"
        }
      ],
      "payable": true,
      "stateMutability": "payable",
      "type": "function"
    },
    {
      "inputs": [
        {
          "name": "_provider",
          "type": "address"
        }
      ],
      "payable": false,
      "stateMutability": "nonpayable",
      "type": "constructor"
    }
  ],
  "bytecode": "0x6060604052341561000f57600080fd5b604051602080610c2783398101604052808051906020019091905050806000806101000a81548173ffffffffffffffffffffffffffffffffffffffff021916908373ffffffffffffffffffffffffffffffffffffffff16021790555050610bac8061007b6000396000f300606060405260043610610077576000357c0100000000000000000000000000000000000000000000000000000000900463ffffffff168062d3f2741461007c5780630a3e93e4146100ea5780631c998a69146101295780635c36b18614610156578063823a71af1461017f57806389be87a1146101a8575b600080fd5b341561008757600080fd5b6100d060048080356000191690602001909190803590602001909190803560ff1690602001909190803560001916906020019091908035600019169060200190919050506101ce565b604051808215151515815260200191505060405180910390f35b34156100f557600080fd5b61012760048080359060200190919080606001909190803560ff1690602001909190803590602001909190505061044b565b005b341561013457600080fd5b61013c6107fc565b604051808215151515815260200191505060405180910390f35b341561016157600080fd5b6101696108d6565b6040518082815260200191505060405180910390f35b341561018a57600080fd5b6101926108df565b6040518082815260200191505060405180910390f35b6101b06109fd565b60405180826000191660001916815260200191505060405180910390f35b60006101d8610b34565b60006101e2610b6c565b6000600160008b60001916600019168152602001908152602001600020606060405190810160405290816000820160009054906101000a900473ffffffffffffffffffffffffffffffffffffffff1673ffffffffffffffffffffffffffffffffffffffff1673ffffffffffffffffffffffffffffffffffffffff16815260200160018201548152602001600282015481525050935061028984602001518560400151610b11565b891115610299576000945061043e565b898960405180836000191660001916815260200182815260200192505050604051809103902092506040805190810160405280601c81526020017f19457468657265756d205369676e6564204d6573736167653a0a333200000000815250915081836040518083805190602001908083835b602083101515610330578051825260208201915060208101905060208303925061030b565b6001836020036101000a03801982511681845116808217855250505050505090500182600019166000191681526020019250505060405180910390209250600183898989604051600081526020016040526000604051602001526040518085600019166000191681526020018460ff1660ff16815260200183600019166000191681526020018260001916600019168152602001945050505050602060405160208103908084039060008661646e5a03f115156103ec57600080fd5b5050602060405103519050836000015173ffffffffffffffffffffffffffffffffffffffff168173ffffffffffffffffffffffffffffffffffffffff16141515610439576000945061043e565b600194505b5050505095945050505050565b6000610455610b34565b60008060008860405180828152602001915050604051809103902094506000809054906101000a900473ffffffffffffffffffffffffffffffffffffffff1673ffffffffffffffffffffffffffffffffffffffff163373ffffffffffffffffffffffffffffffffffffffff161415156104cd57600080fd5b600160008660001916600019168152602001908152602001600020606060405190810160405290816000820160009054906101000a900473ffffffffffffffffffffffffffffffffffffffff1673ffffffffffffffffffffffffffffffffffffffff1673ffffffffffffffffffffffffffffffffffffffff16815260200160018201548152602001600282015481525050935061057284602001518560400151610b11565b861115151561058057600080fd5b600188600060038110151561059157fe5b602002013560001916888a60016003811015156105aa57fe5b6020020135600019168b60026003811015156105c257fe5b602002013560001916604051600081526020016040526000604051602001526040518085600019166000191681526020018460ff1660ff16815260200183600019166000191681526020018260001916600019168152602001945050505050602060405160208103908084039060008661646e5a03f1151561064357600080fd5b5050602060405103519250836000015173ffffffffffffffffffffffffffffffffffffffff168373ffffffffffffffffffffffffffffffffffffffff1614151561068c57600080fd5b848660405180836000191660001916815260200182815260200192505050604051809103902091508760006003811015156106c357fe5b6020020135600019166000191682600019161415156106e157600080fd5b6106ef868560400151610b1e565b90506000809054906101000a900473ffffffffffffffffffffffffffffffffffffffff1673ffffffffffffffffffffffffffffffffffffffff166108fc829081150290604051600060405180830381858888f19350505050151561075257600080fd5b836000015173ffffffffffffffffffffffffffffffffffffffff166108fc828660200151039081150290604051600060405180830381858888f19350505050151561079c57600080fd5b600160008660001916600019168152602001908152602001600020600080820160006101000a81549073ffffffffffffffffffffffffffffffffffffffff0219169055600182016000905560028201600090555050505050505050505050565b60008033604051808273ffffffffffffffffffffffffffffffffffffffff1673ffffffffffffffffffffffffffffffffffffffff166c01000000000000000000000000028152601401915050604051809103902090503373ffffffffffffffffffffffffffffffffffffffff1660016000836000191660001916815260200190815260200160002060000160009054906101000a900473ffffffffffffffffffffffffffffffffffffffff1673ffffffffffffffffffffffffffffffffffffffff1614156108cd57600191506108d2565b600091505b5090565b600060c8905090565b60008033604051808273ffffffffffffffffffffffffffffffffffffffff1673ffffffffffffffffffffffffffffffffffffffff166c01000000000000000000000000028152601401915050604051809103902090503373ffffffffffffffffffffffffffffffffffffffff1660016000836000191660001916815260200190815260200160002060000160009054906101000a900473ffffffffffffffffffffffffffffffffffffffff1673ffffffffffffffffffffffffffffffffffffffff1614156109f4576109ed6001600083600019166000191681526020019081526020016000206001015460016000846000191660001916815260200190815260200160002060020154610b11565b91506109f9565b600091505b5090565b600080610a08610b34565b33604051808273ffffffffffffffffffffffffffffffffffffffff1673ffffffffffffffffffffffffffffffffffffffff166c01000000000000000000000000028152601401915050604051809103902091506060604051908101604052803373ffffffffffffffffffffffffffffffffffffffff168152602001348152602001620f424081525090508060016000846000191660001916815260200190815260200160002060008201518160000160006101000a81548173ffffffffffffffffffffffffffffffffffffffff021916908373ffffffffffffffffffffffffffffffffffffffff1602179055506020820151816001015560408201518160020155905050505090565b6000818302905092915050565b60008183811515610b2b57fe5b04905092915050565b606060405190810160405280600073ffffffffffffffffffffffffffffffffffffffff16815260200160008152602001600081525090565b6020604051908101604052806000815250905600a165627a7a723058207db712df74b42f206b48d3900393a67ee80576e2a4aff730e5f4f7a4ad213b8b0029",
  "source": "pragma solidity ^0.4.18;\n\ncontract CreditChannels {\n\n  struct Channel {\n    address consumer;\n    uint deposit;\n    uint conversionRate;\n  }\n\n  address provider;\n  mapping (bytes32 => Channel) channels;\n\n  function CreditChannels(address _provider) public {\n    provider = _provider;\n  }\n\n  function openChannel() payable external returns (bytes32) {\n    bytes32 channelId = keccak256(msg.sender);\n    Channel memory channel = Channel(\n      msg.sender,\n      msg.value,\n      1000000\n    );\n\n    channels[channelId] = channel;\n  }\n\n  function hasChannelOpen() external view returns (bool) {\n    bytes32 channelId = keccak256(msg.sender);\n    if (channels[channelId].consumer == msg.sender) {\n      return true;\n    }\n    return false;\n  }\n\n  function getCredits() external view returns (uint) {\n    bytes32 channelId = keccak256(msg.sender);\n    if (channels[channelId].consumer == msg.sender) {\n      return ethToCredits(channels[channelId].deposit, channels[channelId].conversionRate);\n    }\n    return 0;\n  }\n\n  function verifyMessage(bytes32 channelId, uint credits, uint8 v, bytes32 r, bytes32 s) external view returns (bool) {\n    Channel memory channel;\n    channel = channels[channelId];\n\n    // verify the channel has enough credits\n    if (credits > ethToCredits(channel.deposit, channel.conversionRate)) {\n      return false;\n    }\n\n    // verift the consumer has signed the promise\n    bytes32 messageHash = keccak256(channelId, credits);\n    bytes memory prefix = \"\\x19Ethereum Signed Message:\\n32\";\n    messageHash = keccak256(prefix, messageHash);\n    address signer = ecrecover(messageHash, v, r, s);\n    if (signer != channel.consumer) {\n      return false;\n    }\n\n    return true;\n  }\n\n  function closeChannel(uint clientId, bytes32[3] h, uint8 v, uint credits) external {\n    // h[0]    Hash of (id, credits)\n    // h[1]    r of signature\n    // h[2]    s of signature\n\n    bytes32 channelId = keccak256(clientId);\n\n    // only the provider can close the channel\n    require(msg.sender == provider);\n\n    Channel memory channel;\n    channel = channels[channelId];\n\n    // verify the channel has enough credits\n    require(credits <= ethToCredits(channel.deposit, channel.conversionRate));\n\n    address signer = ecrecover(h[0], v, h[1], h[2]);\n    require(signer == channel.consumer);\n\n    // verify the hash provided is of the channel id and the amount sent\n    bytes32 proof = keccak256(channelId, credits);\n    require(proof == h[0]);\n\n    uint consumedEth = creditsToEth(credits, channel.conversionRate);\n    provider.transfer(consumedEth);\n    channel.consumer.transfer(channel.deposit - consumedEth);\n\n    delete channels[channelId];\n  }\n\n  function ethToCredits(uint ethAmount, uint conversionRate) internal pure returns (uint) {\n    return ethAmount * conversionRate;\n  }\n\n  function creditsToEth(uint credits, uint conversionRate) internal pure returns (uint) {\n    return credits / conversionRate;\n  }\n\n  function ping() external pure returns (uint) {\n    return 200;\n  }\n\n}\n",
  "sourcePath": "/home/mcampo/development/projects/ethereum-credit-channels/src/truffle/contracts/CreditChannels.sol",
  "compiler": {
    "name": "solc",
    "version": "0.4.18+commit.9cf6e910.Emscripten.clang"
  },
  "schemaVersion": "1.0.1",
  "updatedAt": "2018-02-08T21:14:15.062Z"
}